{
  "_format": "hh-sol-artifact-1",
  "contractName": "NFTPlatform",
  "sourceName": "contracts/NFTPlatform.sol",
  "abi": [
    {
      "inputs": [
        {
          "internalType": "address",
          "name": "acceptedToken",
          "type": "address"
        }
      ],
      "stateMutability": "nonpayable",
      "type": "constructor"
    },
    {
      "anonymous": false,
      "inputs": [
        {
          "indexed": false,
          "internalType": "uint32",
          "name": "bidId",
          "type": "uint32"
        },
        {
          "indexed": false,
          "internalType": "address",
          "name": "from",
          "type": "address"
        }
      ],
      "name": "BidAccepted",
      "type": "event"
    },
    {
      "anonymous": false,
      "inputs": [
        {
          "indexed": false,
          "internalType": "address",
          "name": "tokenContract",
          "type": "address"
        },
        {
          "indexed": false,
          "internalType": "uint256",
          "name": "askAmount",
          "type": "uint256"
        },
        {
          "indexed": false,
          "internalType": "address",
          "name": "nftContract",
          "type": "address"
        },
        {
          "indexed": false,
          "internalType": "uint256",
          "name": "tokenId",
          "type": "uint256"
        },
        {
          "indexed": false,
          "internalType": "address",
          "name": "from",
          "type": "address"
        }
      ],
      "name": "BidCreated",
      "type": "event"
    },
    {
      "anonymous": false,
      "inputs": [
        {
          "indexed": false,
          "internalType": "uint32",
          "name": "bidId",
          "type": "uint32"
        }
      ],
      "name": "LoanDefaulted",
      "type": "event"
    },
    {
      "anonymous": false,
      "inputs": [
        {
          "indexed": false,
          "internalType": "uint32",
          "name": "bidId",
          "type": "uint32"
        },
        {
          "indexed": false,
          "internalType": "address",
          "name": "tokenPaidIn",
          "type": "address"
        },
        {
          "indexed": false,
          "internalType": "uint256",
          "name": "amountPaid",
          "type": "uint256"
        }
      ],
      "name": "LoanRepaid",
      "type": "event"
    },
    {
      "inputs": [
        {
          "internalType": "uint32",
          "name": "bidId",
          "type": "uint32"
        }
      ],
      "name": "acceptBid",
      "outputs": [],
      "stateMutability": "nonpayable",
      "type": "function"
    },
    {
      "inputs": [
        {
          "internalType": "address",
          "name": "",
          "type": "address"
        },
        {
          "internalType": "uint256",
          "name": "",
          "type": "uint256"
        }
      ],
      "name": "acceptedLoans",
      "outputs": [
        {
          "internalType": "uint32",
          "name": "bidId",
          "type": "uint32"
        },
        {
          "internalType": "address",
          "name": "tokenContract",
          "type": "address"
        },
        {
          "internalType": "uint256",
          "name": "askAmount",
          "type": "uint256"
        },
        {
          "internalType": "address",
          "name": "from",
          "type": "address"
        },
        {
          "internalType": "address",
          "name": "nftContract",
          "type": "address"
        },
        {
          "internalType": "uint256",
          "name": "tokenId",
          "type": "uint256"
        },
        {
          "internalType": "bool",
          "name": "accepted",
          "type": "bool"
        }
      ],
      "stateMutability": "view",
      "type": "function"
    },
    {
      "inputs": [
        {
          "internalType": "address",
          "name": "",
          "type": "address"
        }
      ],
      "name": "acceptedNFTs",
      "outputs": [
        {
          "internalType": "bool",
          "name": "",
          "type": "bool"
        }
      ],
      "stateMutability": "view",
      "type": "function"
    },
    {
      "inputs": [
        {
          "internalType": "address",
          "name": "",
          "type": "address"
        }
      ],
      "name": "acceptedTokens",
      "outputs": [
        {
          "internalType": "bool",
          "name": "",
          "type": "bool"
        }
      ],
      "stateMutability": "view",
      "type": "function"
    },
    {
      "inputs": [
        {
          "internalType": "uint32",
          "name": "",
          "type": "uint32"
        }
      ],
      "name": "bids",
      "outputs": [
        {
          "internalType": "uint32",
          "name": "bidId",
          "type": "uint32"
        },
        {
          "internalType": "address",
          "name": "tokenContract",
          "type": "address"
        },
        {
          "internalType": "uint256",
          "name": "askAmount",
          "type": "uint256"
        },
        {
          "internalType": "address",
          "name": "from",
          "type": "address"
        },
        {
          "internalType": "address",
          "name": "nftContract",
          "type": "address"
        },
        {
          "internalType": "uint256",
          "name": "tokenId",
          "type": "uint256"
        },
        {
          "internalType": "bool",
          "name": "accepted",
          "type": "bool"
        }
      ],
      "stateMutability": "view",
      "type": "function"
    },
    {
      "inputs": [
        {
          "internalType": "address",
          "name": "_tokenAddress",
          "type": "address"
        },
        {
          "internalType": "uint256",
          "name": "_amount",
          "type": "uint256"
        },
        {
          "internalType": "address",
          "name": "_nftContract",
          "type": "address"
        },
        {
          "internalType": "uint256",
          "name": "_tokenId",
          "type": "uint256"
        }
      ],
      "name": "createBid",
      "outputs": [],
      "stateMutability": "nonpayable",
      "type": "function"
    },
    {
      "inputs": [],
      "name": "currentBidId",
      "outputs": [
        {
          "internalType": "uint32",
          "name": "",
          "type": "uint32"
        }
      ],
      "stateMutability": "view",
      "type": "function"
    },
    {
      "inputs": [
        {
          "internalType": "uint32",
          "name": "bidId",
          "type": "uint32"
        }
      ],
      "name": "defaultLoan",
      "outputs": [],
      "stateMutability": "nonpayable",
      "type": "function"
    },
    {
      "inputs": [],
      "name": "interest",
      "outputs": [
        {
          "internalType": "uint256",
          "name": "",
          "type": "uint256"
        }
      ],
      "stateMutability": "view",
      "type": "function"
    },
    {
      "inputs": [
        {
          "internalType": "uint32",
          "name": "",
          "type": "uint32"
        }
      ],
      "name": "loans",
      "outputs": [
        {
          "internalType": "uint32",
          "name": "bidId",
          "type": "uint32"
        },
        {
          "internalType": "address",
          "name": "tokenContract",
          "type": "address"
        },
        {
          "internalType": "uint256",
          "name": "askAmount",
          "type": "uint256"
        },
        {
          "internalType": "address",
          "name": "from",
          "type": "address"
        },
        {
          "internalType": "address",
          "name": "nftContract",
          "type": "address"
        },
        {
          "internalType": "uint256",
          "name": "tokenId",
          "type": "uint256"
        },
        {
          "internalType": "bool",
          "name": "defaulted",
          "type": "bool"
        },
        {
          "internalType": "bool",
          "name": "repaid",
          "type": "bool"
        },
        {
          "internalType": "address",
          "name": "lender",
          "type": "address"
        }
      ],
      "stateMutability": "view",
      "type": "function"
    },
    {
      "inputs": [
        {
          "internalType": "address",
          "name": "operator",
          "type": "address"
        },
        {
          "internalType": "address",
          "name": "from",
          "type": "address"
        },
        {
          "internalType": "uint256",
          "name": "tokenId",
          "type": "uint256"
        },
        {
          "internalType": "bytes",
          "name": "data",
          "type": "bytes"
        }
      ],
      "name": "onERC721Received",
      "outputs": [
        {
          "internalType": "bytes4",
          "name": "",
          "type": "bytes4"
        }
      ],
      "stateMutability": "nonpayable",
      "type": "function"
    },
    {
      "inputs": [
        {
          "internalType": "uint32",
          "name": "bidId",
          "type": "uint32"
        }
      ],
      "name": "repayLoan",
      "outputs": [],
      "stateMutability": "nonpayable",
      "type": "function"
    }
  ],
  "bytecode": "0x60806040526103e86006553480156200001757600080fd5b50604051620025233803806200252383398181016040528101906200003d919062000106565b6001600260008373ffffffffffffffffffffffffffffffffffffffff1673ffffffffffffffffffffffffffffffffffffffff16815260200190815260200160002060006101000a81548160ff0219169083151502179055505062000138565b600080fd5b600073ffffffffffffffffffffffffffffffffffffffff82169050919050565b6000620000ce82620000a1565b9050919050565b620000e081620000c1565b8114620000ec57600080fd5b50565b6000815190506200010081620000d5565b92915050565b6000602082840312156200011f576200011e6200009c565b5b60006200012f84828501620000ef565b91505092915050565b6123db80620001486000396000f3fe608060405234801561001057600080fd5b50600436106100b45760003560e01c8063948355a711610071578063948355a7146101d3578063b85e471b146101ef578063bd3a27b01461020d578063c392f76614610229578063e8f4343c14610247578063ed153d6714610263576100b4565b806308c40531146100b9578063150b7a02146100e957806350892fbe1461011957806369401b541461014f57806382dc4a051461016b5780638c36c6e41461019b575b600080fd5b6100d360048036038101906100ce9190611756565b610299565b6040516100e0919061179e565b60405180910390f35b61010360048036038101906100fe9190611854565b6102b9565b6040516101109190611917565b60405180910390f35b610133600480360381019061012e919061196e565b6102ce565b60405161014697969594939291906119c8565b60405180910390f35b6101696004803603810190610164919061196e565b61038d565b005b61018560048036038101906101809190611756565b61078f565b604051610192919061179e565b60405180910390f35b6101b560048036038101906101b0919061196e565b6107af565b6040516101ca99989796959493929190611a37565b60405180910390f35b6101ed60048036038101906101e8919061196e565b6108a7565b005b6101f7610f56565b6040516102049190611ac4565b60405180910390f35b61022760048036038101906102229190611adf565b610f6c565b005b61023161132e565b60405161023e9190611b46565b60405180910390f35b610261600480360381019061025c919061196e565b611334565b005b61027d60048036038101906102789190611b61565b611612565b60405161029097969594939291906119c8565b60405180910390f35b60036020528060005260406000206000915054906101000a900460ff1681565b600063150b7a0260e01b905095945050505050565b60006020528060005260406000206000915090508060000160009054906101000a900463ffffffff16908060000160049054906101000a900473ffffffffffffffffffffffffffffffffffffffff16908060010154908060020160009054906101000a900473ffffffffffffffffffffffffffffffffffffffff16908060030160009054906101000a900473ffffffffffffffffffffffffffffffffffffffff16908060040154908060050160009054906101000a900460ff16905087565b60008060008363ffffffff1663ffffffff16815260200190815260200160002090508060050160009054906101000a900460ff16610400576040517f08c379a00000000000000000000000000000000000000000000000000000000081526004016103f790611bfe565b60405180910390fd5b3373ffffffffffffffffffffffffffffffffffffffff168160020160009054906101000a900473ffffffffffffffffffffffffffffffffffffffff1673ffffffffffffffffffffffffffffffffffffffff1614610492576040517f08c379a000000000000000000000000000000000000000000000000000000000815260040161048990611c90565b60405180910390fd5b60008160000160049054906101000a900473ffffffffffffffffffffffffffffffffffffffff169050600060065483600101546104cf9190611cdf565b9050808273ffffffffffffffffffffffffffffffffffffffff166370a08231336040518263ffffffff1660e01b815260040161050b9190611d13565b602060405180830381865afa158015610528573d6000803e3d6000fd5b505050506040513d601f19601f8201168201806040525081019061054c9190611d43565b101561058d576040517f08c379a000000000000000000000000000000000000000000000000000000000815260040161058490611de2565b60405180910390fd5b8173ffffffffffffffffffffffffffffffffffffffff166323b872dd3330846040518463ffffffff1660e01b81526004016105ca93929190611e02565b6020604051808303816000875af11580156105e9573d6000803e3d6000fd5b505050506040513d601f19601f8201168201806040525081019061060d9190611e65565b61064c576040517f08c379a000000000000000000000000000000000000000000000000000000000815260040161064390611ede565b60405180910390fd5b60008360030160009054906101000a900473ffffffffffffffffffffffffffffffffffffffff1690508073ffffffffffffffffffffffffffffffffffffffff166323b872dd303387600401546040518463ffffffff1660e01b81526004016106b693929190611e02565b600060405180830381600087803b1580156106d057600080fd5b505af11580156106e4573d6000803e3d6000fd5b505050506000600460008763ffffffff1663ffffffff168152602001908152602001600020905060018160050160016101000a81548160ff0219169083151502179055507fb5634f4b927cc9d347aadb5b7b887e9a5a093db24700551eecdce431d1b8846c868660000160049054906101000a900473ffffffffffffffffffffffffffffffffffffffff168560405161077f93929190611efe565b60405180910390a1505050505050565b60026020528060005260406000206000915054906101000a900460ff1681565b60046020528060005260406000206000915090508060000160009054906101000a900463ffffffff16908060000160049054906101000a900473ffffffffffffffffffffffffffffffffffffffff16908060010154908060020160009054906101000a900473ffffffffffffffffffffffffffffffffffffffff16908060030160009054906101000a900473ffffffffffffffffffffffffffffffffffffffff16908060040154908060050160009054906101000a900460ff16908060050160019054906101000a900460ff16908060050160029054906101000a900473ffffffffffffffffffffffffffffffffffffffff16905089565b6000808263ffffffff1663ffffffff16815260200190815260200160002060000160049054906101000a900473ffffffffffffffffffffffffffffffffffffffff16600260008273ffffffffffffffffffffffffffffffffffffffff1673ffffffffffffffffffffffffffffffffffffffff16815260200190815260200160002060009054906101000a900460ff16610975576040517f08c379a000000000000000000000000000000000000000000000000000000000815260040161096c90611f81565b60405180910390fd5b60008060008463ffffffff1663ffffffff16815260200190815260200160002090508060050160009054906101000a900460ff16156109e9576040517f08c379a00000000000000000000000000000000000000000000000000000000081526004016109e090611fed565b60405180910390fd5b60008160000160049054906101000a900473ffffffffffffffffffffffffffffffffffffffff1690508073ffffffffffffffffffffffffffffffffffffffff166323b872dd338460020160009054906101000a900473ffffffffffffffffffffffffffffffffffffffff1685600101546040518463ffffffff1660e01b8152600401610a7793929190611e02565b6020604051808303816000875af1158015610a96573d6000803e3d6000fd5b505050506040513d601f19601f82011682018060405250810190610aba9190611e65565b610af9576040517f08c379a0000000000000000000000000000000000000000000000000000000008152600401610af090612059565b60405180910390fd5b60018260050160006101000a81548160ff02191690831515021790555060008260030160009054906101000a900473ffffffffffffffffffffffffffffffffffffffff1690503073ffffffffffffffffffffffffffffffffffffffff168173ffffffffffffffffffffffffffffffffffffffff16636352211e85600401546040518263ffffffff1660e01b8152600401610b939190611b46565b602060405180830381865afa158015610bb0573d6000803e3d6000fd5b505050506040513d601f19601f82011682018060405250810190610bd4919061208e565b73ffffffffffffffffffffffffffffffffffffffff1614610c2a576040517f08c379a0000000000000000000000000000000000000000000000000000000008152600401610c219061212d565b60405180910390fd5b7f415c1ba2aff0efbb6d1459b5049e0b8690cfd31dcd446592102ecc1eae5d94f08533604051610c5b92919061214d565b60405180910390a160006040518061012001604052808560000160009054906101000a900463ffffffff1663ffffffff1681526020018560000160049054906101000a900473ffffffffffffffffffffffffffffffffffffffff1673ffffffffffffffffffffffffffffffffffffffff168152602001856001015481526020018560020160009054906101000a900473ffffffffffffffffffffffffffffffffffffffff1673ffffffffffffffffffffffffffffffffffffffff1681526020018560030160009054906101000a900473ffffffffffffffffffffffffffffffffffffffff1673ffffffffffffffffffffffffffffffffffffffff168152602001856004015481526020016000151581526020016000151581526020013373ffffffffffffffffffffffffffffffffffffffff16815250905080600460008863ffffffff1663ffffffff16815260200190815260200160002060008201518160000160006101000a81548163ffffffff021916908363ffffffff16021790555060208201518160000160046101000a81548173ffffffffffffffffffffffffffffffffffffffff021916908373ffffffffffffffffffffffffffffffffffffffff1602179055506040820151816001015560608201518160020160006101000a81548173ffffffffffffffffffffffffffffffffffffffff021916908373ffffffffffffffffffffffffffffffffffffffff16021790555060808201518160030160006101000a81548173ffffffffffffffffffffffffffffffffffffffff021916908373ffffffffffffffffffffffffffffffffffffffff16021790555060a0820151816004015560c08201518160050160006101000a81548160ff02191690831515021790555060e08201518160050160016101000a81548160ff0219169083151502179055506101008201518160050160026101000a81548173ffffffffffffffffffffffffffffffffffffffff021916908373ffffffffffffffffffffffffffffffffffffffff160217905550905050505050505050565b600560009054906101000a900463ffffffff1681565b60008290503373ffffffffffffffffffffffffffffffffffffffff168173ffffffffffffffffffffffffffffffffffffffff16636352211e846040518263ffffffff1660e01b8152600401610fc19190611b46565b602060405180830381865afa158015610fde573d6000803e3d6000fd5b505050506040513d601f19601f82011682018060405250810190611002919061208e565b73ffffffffffffffffffffffffffffffffffffffff1614611058576040517f08c379a000000000000000000000000000000000000000000000000000000000815260040161104f906121c2565b60405180910390fd5b8073ffffffffffffffffffffffffffffffffffffffff166342842e0e3330856040518463ffffffff1660e01b815260040161109593929190611e02565b600060405180830381600087803b1580156110af57600080fd5b505af11580156110c3573d6000803e3d6000fd5b5050505060006040518060e001604052806005600081819054906101000a900463ffffffff166110f2906121e2565b91906101000a81548163ffffffff021916908363ffffffff160217905563ffffffff1681526020018773ffffffffffffffffffffffffffffffffffffffff1681526020018681526020013373ffffffffffffffffffffffffffffffffffffffff1681526020018573ffffffffffffffffffffffffffffffffffffffff16815260200184815260200160001515815250905080600080600560009054906101000a900463ffffffff1663ffffffff1663ffffffff16815260200190815260200160002060008201518160000160006101000a81548163ffffffff021916908363ffffffff16021790555060208201518160000160046101000a81548173ffffffffffffffffffffffffffffffffffffffff021916908373ffffffffffffffffffffffffffffffffffffffff1602179055506040820151816001015560608201518160020160006101000a81548173ffffffffffffffffffffffffffffffffffffffff021916908373ffffffffffffffffffffffffffffffffffffffff16021790555060808201518160030160006101000a81548173ffffffffffffffffffffffffffffffffffffffff021916908373ffffffffffffffffffffffffffffffffffffffff16021790555060a0820151816004015560c08201518160050160006101000a81548160ff0219169083151502179055509050507f5d0b1cbe752aae8ade43db77b284bc0fb2d3a115b0412ccd4ce7ce3eab55bfdf868686863360405161131e95949392919061220e565b60405180910390a1505050505050565b60065481565b6000600460008363ffffffff1663ffffffff16815260200190815260200160002090508060050160009054906101000a900460ff16156113a9576040517f08c379a00000000000000000000000000000000000000000000000000000000081526004016113a0906122ad565b60405180910390fd5b3373ffffffffffffffffffffffffffffffffffffffff168160050160029054906101000a900473ffffffffffffffffffffffffffffffffffffffff1673ffffffffffffffffffffffffffffffffffffffff161461143b576040517f08c379a000000000000000000000000000000000000000000000000000000000815260040161143290612319565b60405180910390fd5b60008160030160009054906101000a900473ffffffffffffffffffffffffffffffffffffffff1690503073ffffffffffffffffffffffffffffffffffffffff168173ffffffffffffffffffffffffffffffffffffffff16636352211e84600401546040518263ffffffff1660e01b81526004016114b89190611b46565b602060405180830381865afa1580156114d5573d6000803e3d6000fd5b505050506040513d601f19601f820116820180604052508101906114f9919061208e565b73ffffffffffffffffffffffffffffffffffffffff161461154f576040517f08c379a000000000000000000000000000000000000000000000000000000000815260040161154690612385565b60405180910390fd5b8073ffffffffffffffffffffffffffffffffffffffff166342842e0e303385600401546040518463ffffffff1660e01b815260040161159093929190611e02565b600060405180830381600087803b1580156115aa57600080fd5b505af11580156115be573d6000803e3d6000fd5b505050507f7405f2886b5eb0578773a70ad4f3bcfbd604d4ad145cedbe563aecd40c88ef528260000160009054906101000a900463ffffffff166040516116059190611ac4565b60405180910390a1505050565b6001602052816000526040600020818154811061162e57600080fd5b9060005260206000209060060201600091509150508060000160009054906101000a900463ffffffff16908060000160049054906101000a900473ffffffffffffffffffffffffffffffffffffffff16908060010154908060020160009054906101000a900473ffffffffffffffffffffffffffffffffffffffff16908060030160009054906101000a900473ffffffffffffffffffffffffffffffffffffffff16908060040154908060050160009054906101000a900460ff16905087565b600080fd5b600080fd5b600073ffffffffffffffffffffffffffffffffffffffff82169050919050565b6000611723826116f8565b9050919050565b61173381611718565b811461173e57600080fd5b50565b6000813590506117508161172a565b92915050565b60006020828403121561176c5761176b6116ee565b5b600061177a84828501611741565b91505092915050565b60008115159050919050565b61179881611783565b82525050565b60006020820190506117b3600083018461178f565b92915050565b6000819050919050565b6117cc816117b9565b81146117d757600080fd5b50565b6000813590506117e9816117c3565b92915050565b600080fd5b600080fd5b600080fd5b60008083601f840112611814576118136117ef565b5b8235905067ffffffffffffffff811115611831576118306117f4565b5b60208301915083600182028301111561184d5761184c6117f9565b5b9250929050565b6000806000806000608086880312156118705761186f6116ee565b5b600061187e88828901611741565b955050602061188f88828901611741565b94505060406118a0888289016117da565b935050606086013567ffffffffffffffff8111156118c1576118c06116f3565b5b6118cd888289016117fe565b92509250509295509295909350565b60007fffffffff0000000000000000000000000000000000000000000000000000000082169050919050565b611911816118dc565b82525050565b600060208201905061192c6000830184611908565b92915050565b600063ffffffff82169050919050565b61194b81611932565b811461195657600080fd5b50565b60008135905061196881611942565b92915050565b600060208284031215611984576119836116ee565b5b600061199284828501611959565b91505092915050565b6119a481611932565b82525050565b6119b381611718565b82525050565b6119c2816117b9565b82525050565b600060e0820190506119dd600083018a61199b565b6119ea60208301896119aa565b6119f760408301886119b9565b611a0460608301876119aa565b611a1160808301866119aa565b611a1e60a08301856119b9565b611a2b60c083018461178f565b98975050505050505050565b600061012082019050611a4d600083018c61199b565b611a5a602083018b6119aa565b611a67604083018a6119b9565b611a7460608301896119aa565b611a8160808301886119aa565b611a8e60a08301876119b9565b611a9b60c083018661178f565b611aa860e083018561178f565b611ab66101008301846119aa565b9a9950505050505050505050565b6000602082019050611ad9600083018461199b565b92915050565b60008060008060808587031215611af957611af86116ee565b5b6000611b0787828801611741565b9450506020611b18878288016117da565b9350506040611b2987828801611741565b9250506060611b3a878288016117da565b91505092959194509250565b6000602082019050611b5b60008301846119b9565b92915050565b60008060408385031215611b7857611b776116ee565b5b6000611b8685828601611741565b9250506020611b97858286016117da565b9150509250929050565b600082825260208201905092915050565b7f43616e2774207265706179206c6f616e206966206e6f74206163636570746564600082015250565b6000611be8602083611ba1565b9150611bf382611bb2565b602082019050919050565b60006020820190508181036000830152611c1781611bdb565b9050919050565b7f4f6e6c79207468652063726561746f72206f6620746865206269642063616e2060008201527f726570617920746865206c6f616e210000000000000000000000000000000000602082015250565b6000611c7a602f83611ba1565b9150611c8582611c1e565b604082019050919050565b60006020820190508181036000830152611ca981611c6d565b9050919050565b7f4e487b7100000000000000000000000000000000000000000000000000000000600052601160045260246000fd5b6000611cea826117b9565b9150611cf5836117b9565b9250828201905080821115611d0d57611d0c611cb0565b5b92915050565b6000602082019050611d2860008301846119aa565b92915050565b600081519050611d3d816117c3565b92915050565b600060208284031215611d5957611d586116ee565b5b6000611d6784828501611d2e565b91505092915050565b7f53656e64657220646f65736e277420686176652074686520726571756972656460008201527f2066756e64730000000000000000000000000000000000000000000000000000602082015250565b6000611dcc602683611ba1565b9150611dd782611d70565b604082019050919050565b60006020820190508181036000830152611dfb81611dbf565b9050919050565b6000606082019050611e1760008301866119aa565b611e2460208301856119aa565b611e3160408301846119b9565b949350505050565b611e4281611783565b8114611e4d57600080fd5b50565b600081519050611e5f81611e39565b92915050565b600060208284031215611e7b57611e7a6116ee565b5b6000611e8984828501611e50565b91505092915050565b7f546f6b656e20636f756c646e2774206265207472616e73666572726564210000600082015250565b6000611ec8601e83611ba1565b9150611ed382611e92565b602082019050919050565b60006020820190508181036000830152611ef781611ebb565b9050919050565b6000606082019050611f13600083018661199b565b611f2060208301856119aa565b611f2d60408301846119b9565b949350505050565b7f4e6f7420616e20616363657074656420746f6b656e2100000000000000000000600082015250565b6000611f6b601683611ba1565b9150611f7682611f35565b602082019050919050565b60006020820190508181036000830152611f9a81611f5e565b9050919050565b7f42696420616c7265616479206163636570746564000000000000000000000000600082015250565b6000611fd7601483611ba1565b9150611fe282611fa1565b602082019050919050565b6000602082019050818103600083015261200681611fca565b9050919050565b7f546f6b656e207472616e73666572206661696c65640000000000000000000000600082015250565b6000612043601583611ba1565b915061204e8261200d565b602082019050919050565b6000602082019050818103600083015261207281612036565b9050919050565b6000815190506120888161172a565b92915050565b6000602082840312156120a4576120a36116ee565b5b60006120b284828501612079565b91505092915050565b7f4e4654206973206e6f74207374616b656420696e2074686520636f6e7472616360008201527f7400000000000000000000000000000000000000000000000000000000000000602082015250565b6000612117602183611ba1565b9150612122826120bb565b604082019050919050565b600060208201905081810360008301526121468161210a565b9050919050565b6000604082019050612162600083018561199b565b61216f60208301846119aa565b9392505050565b7f4d757374206f776e2074686520746f6b656e20746f2073656e64210000000000600082015250565b60006121ac601b83611ba1565b91506121b782612176565b602082019050919050565b600060208201905081810360008301526121db8161219f565b9050919050565b60006121ed82611932565b915063ffffffff820361220357612202611cb0565b5b600182019050919050565b600060a08201905061222360008301886119aa565b61223060208301876119b9565b61223d60408301866119aa565b61224a60608301856119b9565b61225760808301846119aa565b9695505050505050565b7f4c6f616e20697320616c72656164792064656661756c74656400000000000000600082015250565b6000612297601983611ba1565b91506122a282612261565b602082019050919050565b600060208201905081810360008301526122c68161228a565b9050919050565b7f4c656e646572206e6f7420746865206d73672e73656e64657221000000000000600082015250565b6000612303601a83611ba1565b915061230e826122cd565b602082019050919050565b60006020820190508181036000830152612332816122f6565b9050919050565b7f4e4654206e6f74207374616b6564210000000000000000000000000000000000600082015250565b600061236f600f83611ba1565b915061237a82612339565b602082019050919050565b6000602082019050818103600083015261239e81612362565b905091905056fea2646970667358221220942679923099421a1a22fd2c900919475a060e09b2c1bbf401cd1aabf4af2f7d64736f6c63430008140033",
  "linkReferences": {},
  "deployedLinkReferences": {}
}