{
  "contractName": "NFTPlatform",
  "abi": [
    {
      "inputs": [
        {
          "internalType": "address",
          "name": "acceptedToken",
          "type": "address"
        }
      ],
      "stateMutability": "nonpayable",
      "type": "constructor"
    },
    {
      "anonymous": false,
      "inputs": [
        {
          "indexed": false,
          "internalType": "uint32",
          "name": "bidId",
          "type": "uint32"
        },
        {
          "indexed": false,
          "internalType": "address",
          "name": "from",
          "type": "address"
        },
        {
          "indexed": false,
          "internalType": "uint256",
          "name": "initialPremiumFee",
          "type": "uint256"
        },
        {
          "indexed": false,
          "internalType": "uint32",
          "name": "duration",
          "type": "uint32"
        }
      ],
      "name": "BidAccepted",
      "type": "event"
    },
    {
      "anonymous": false,
      "inputs": [
        {
          "indexed": false,
          "internalType": "address",
          "name": "tokenContract",
          "type": "address"
        },
        {
          "indexed": false,
          "internalType": "uint256",
          "name": "askAmount",
          "type": "uint256"
        },
        {
          "indexed": false,
          "internalType": "address",
          "name": "nftContract",
          "type": "address"
        },
        {
          "indexed": false,
          "internalType": "uint256",
          "name": "tokenId",
          "type": "uint256"
        },
        {
          "indexed": false,
          "internalType": "address",
          "name": "from",
          "type": "address"
        }
      ],
      "name": "BidCreated",
      "type": "event"
    },
    {
      "anonymous": false,
      "inputs": [
        {
          "indexed": false,
          "internalType": "uint32",
          "name": "bidId",
          "type": "uint32"
        },
        {
          "indexed": false,
          "internalType": "address",
          "name": "nftContract",
          "type": "address"
        },
        {
          "indexed": false,
          "internalType": "uint256",
          "name": "tokenId",
          "type": "uint256"
        }
      ],
      "name": "LoanDefaulted",
      "type": "event"
    },
    {
      "anonymous": false,
      "inputs": [
        {
          "indexed": false,
          "internalType": "uint32",
          "name": "bidId",
          "type": "uint32"
        },
        {
          "indexed": false,
          "internalType": "address",
          "name": "tokenPaidIn",
          "type": "address"
        },
        {
          "indexed": false,
          "internalType": "uint256",
          "name": "amountPaid",
          "type": "uint256"
        }
      ],
      "name": "PrincipalPaid",
      "type": "event"
    },
    {
      "inputs": [
        {
          "internalType": "address",
          "name": "",
          "type": "address"
        },
        {
          "internalType": "uint256",
          "name": "",
          "type": "uint256"
        }
      ],
      "name": "acceptedBids",
      "outputs": [
        {
          "internalType": "address",
          "name": "tokenContract",
          "type": "address"
        },
        {
          "internalType": "uint256",
          "name": "askAmount",
          "type": "uint256"
        },
        {
          "internalType": "address",
          "name": "from",
          "type": "address"
        },
        {
          "internalType": "address",
          "name": "nftContract",
          "type": "address"
        },
        {
          "internalType": "uint256",
          "name": "tokenId",
          "type": "uint256"
        },
        {
          "internalType": "bool",
          "name": "accepted",
          "type": "bool"
        }
      ],
      "stateMutability": "view",
      "type": "function"
    },
    {
      "inputs": [
        {
          "internalType": "address",
          "name": "",
          "type": "address"
        }
      ],
      "name": "acceptedNFTs",
      "outputs": [
        {
          "internalType": "bool",
          "name": "",
          "type": "bool"
        }
      ],
      "stateMutability": "view",
      "type": "function"
    },
    {
      "inputs": [
        {
          "internalType": "address",
          "name": "",
          "type": "address"
        }
      ],
      "name": "acceptedTokens",
      "outputs": [
        {
          "internalType": "bool",
          "name": "",
          "type": "bool"
        }
      ],
      "stateMutability": "view",
      "type": "function"
    },
    {
      "inputs": [
        {
          "internalType": "uint32",
          "name": "",
          "type": "uint32"
        }
      ],
      "name": "bids",
      "outputs": [
        {
          "internalType": "address",
          "name": "tokenContract",
          "type": "address"
        },
        {
          "internalType": "uint256",
          "name": "askAmount",
          "type": "uint256"
        },
        {
          "internalType": "address",
          "name": "from",
          "type": "address"
        },
        {
          "internalType": "address",
          "name": "nftContract",
          "type": "address"
        },
        {
          "internalType": "uint256",
          "name": "tokenId",
          "type": "uint256"
        },
        {
          "internalType": "bool",
          "name": "accepted",
          "type": "bool"
        }
      ],
      "stateMutability": "view",
      "type": "function"
    },
    {
      "inputs": [],
      "name": "nextBidId",
      "outputs": [
        {
          "internalType": "uint32",
          "name": "",
          "type": "uint32"
        }
      ],
      "stateMutability": "view",
      "type": "function"
    },
    {
      "inputs": [
        {
          "internalType": "address",
          "name": "_tokenAddress",
          "type": "address"
        },
        {
          "internalType": "uint256",
          "name": "_amount",
          "type": "uint256"
        },
        {
          "internalType": "address",
          "name": "_nftContract",
          "type": "address"
        },
        {
          "internalType": "uint256",
          "name": "_tokenId",
          "type": "uint256"
        }
      ],
      "name": "createBid",
      "outputs": [],
      "stateMutability": "nonpayable",
      "type": "function"
    },
    {
      "inputs": [
        {
          "internalType": "uint32",
          "name": "bidId",
          "type": "uint32"
        },
        {
          "internalType": "uint256",
          "name": "duration",
          "type": "uint256"
        }
      ],
      "name": "acceptBid",
      "outputs": [],
      "stateMutability": "nonpayable",
      "type": "function"
    }
  ],
  "bytecode": "0x60806040526004805463ffffffff1916600117905534801561002057600080fd5b5060405161088938038061088983398101604081905261003f91610066565b6001600160a01b03166000908152600260205260409020805460ff19166001179055610096565b60006020828403121561007857600080fd5b81516001600160a01b038116811461008f57600080fd5b9392505050565b6107e4806100a56000396000f3fe608060405234801561001057600080fd5b506004361061007d5760003560e01c806382dc4a051161005b57806382dc4a0514610166578063bd3a27b014610189578063dc2690491461019c578063fbc69c67146101c157600080fd5b806308c40531146100825780630b6b3389146100ba57806350892fbe146100cf575b600080fd5b6100a5610090366004610656565b60036020526000908152604090205460ff1681565b60405190151581526020015b60405180910390f35b6100cd6100c8366004610693565b6101d4565b005b6101246100dd3660046106bd565b6000602081905290815260409020805460018201546002830154600384015460048501546005909501546001600160a01b0394851695939492831693919092169160ff1686565b604080516001600160a01b03978816815260208101969096529386169385019390935293166060830152608082019290925290151560a082015260c0016100b1565b6100a5610174366004610656565b60026020526000908152604090205460ff1681565b6100cd6101973660046106d8565b610475565b6004546101ac9063ffffffff1681565b60405163ffffffff90911681526020016100b1565b6101246101cf366004610720565b6105d8565b63ffffffff8216600090815260208181526040808320546001600160a01b031680845260029092529091205460ff166102545760405162461bcd60e51b815260206004820152601e60248201527f4e6f7420616e20616363657074656420746f6b656e206164647265737321000060448201526064015b60405180910390fd5b63ffffffff83166000908152602081905260409020600581015460ff16156102b55760405162461bcd60e51b8152602060048201526014602482015273109a5908185b1c9958591e481858d8d95c1d195960621b604482015260640161024b565b8054600282015460018301546040516323b872dd60e01b81523360048201526001600160a01b039283166024820152604481019190915291169081906323b872dd906064016020604051808303816000875af1158015610319573d6000803e3d6000fd5b505050506040513d601f19601f8201168201806040525081019061033d919061073e565b6103815760405162461bcd60e51b8152602060048201526015602482015274151bdad95b881d1c985b9cd9995c8819985a5b1959605a1b604482015260640161024b565b60058201805460ff1916600117905560038201546004808401546040516331a9108f60e11b81526001600160a01b039093169230928492636352211e926103cc920190815260200190565b602060405180830381865afa1580156103e9573d6000803e3d6000fd5b505050506040513d601f19601f8201168201806040525081019061040d9190610760565b6001600160a01b03161461046d5760405162461bcd60e51b815260206004820152602160248201527f4e4654206973206e6f74207374616b656420696e2074686520636f6e747261636044820152601d60fa1b606482015260840161024b565b505050505050565b6040805160c0810182526001600160a01b0380871682526020808301878152338486018181528885166060870190815260808701898152600060a089018181526004805463ffffffff16835297829052908a902089518154908a166001600160a01b0319918216178255965160018201559351600285018054918a1691881691909117905591516003840180549190981695169490941790955591519282019290925591516005909201805492151560ff1990931692909217909155915190917f5d0b1cbe752aae8ade43db77b284bc0fb2d3a115b0412ccd4ce7ce3eab55bfdf91610594918891889188918891906001600160a01b039586168152602081019490945291841660408401526060830152909116608082015260a00190565b60405180910390a16004805463ffffffff169060006105b28361077d565b91906101000a81548163ffffffff021916908363ffffffff160217905550505050505050565b600160205281600052604060002081815481106105f457600080fd5b60009182526020909120600690910201805460018201546002830154600384015460048501546005909501546001600160a01b039485169750929550908316939216919060ff1686565b6001600160a01b038116811461065357600080fd5b50565b60006020828403121561066857600080fd5b81356106738161063e565b9392505050565b803563ffffffff8116811461068e57600080fd5b919050565b600080604083850312156106a657600080fd5b6106af8361067a565b946020939093013593505050565b6000602082840312156106cf57600080fd5b6106738261067a565b600080600080608085870312156106ee57600080fd5b84356106f98161063e565b93506020850135925060408501356107108161063e565b9396929550929360600135925050565b6000806040838503121561073357600080fd5b82356106af8161063e565b60006020828403121561075057600080fd5b8151801515811461067357600080fd5b60006020828403121561077257600080fd5b81516106738161063e565b600063ffffffff8083168181036107a457634e487b7160e01b600052601160045260246000fd5b600101939250505056fea26469706673582212205e959a05279f91f7cf466265491da63a5b702ba8e8e60cb2f7f29de4571b9b0d64736f6c63430008150033",
  "immutableReferences": {},
  "source": "//SPDX-Identifier: MIT\npragma solidity ^0.8.2;\n\nimport \"@openzeppelin/contracts/utils/math/Math.sol\";\nimport \"@openzeppelin/contracts/token/ERC721/IERC721.sol\";\nimport \"@openzeppelin/contracts/token/ERC20/IERC20.sol\";\n\n\ncontract NFTPlatform {\n    // Structs\n    struct Bid {\n        address tokenContract;\n        uint256 askAmount;\n        address from;\n        address nftContract;\n        uint256 tokenId;\n        bool accepted;\n    }\n\n    // Storage\n    mapping(uint32 => Bid) public bids;\n    mapping(address => Bid[]) public acceptedBids;\n    mapping(address => bool) public acceptedTokens;\n    mapping(address => bool) public acceptedNFTs;\n\n    // Policy ID\n    uint32 public nextBidId = 1;\n\n    // Events\n    event BidCreated(\n        address tokenContract,\n        uint256 askAmount,\n        address nftContract,\n        uint256 tokenId,\n        address from\n    );\n\n    event BidAccepted(\n        uint32 bidId,\n        address from,\n        uint256 initialPremiumFee,\n        uint32 duration\n    );\n\n    event PrincipalPaid(uint32 bidId, address tokenPaidIn, uint256 amountPaid);\n\n    event LoanDefaulted(uint32 bidId, address nftContract, uint256 tokenId);\n\n    constructor(address acceptedToken) {\n        acceptedTokens[acceptedToken] = true;\n    }\n\n    // Modifiers\n    modifier onlyAcceptedTokens(address tokenAddress) {\n        require(acceptedTokens[tokenAddress], \"Not an accepted token address!\");\n        _;\n    }\n\n    // Modifiers\n    modifier onlyAcceptedNFTs(address nftAddress) {\n        require(acceptedNFTs[nftAddress], \"Not an accepted token address!\");\n        _;\n    }\n\n    // Functions\n    function createBid(\n        address _tokenAddress,\n        uint256 _amount,\n        address _nftContract,\n        uint256 _tokenId\n    ) public {\n        Bid memory newBid = Bid({\n            tokenContract: _tokenAddress,\n            askAmount: _amount,\n            nftContract: _nftContract,\n            tokenId: _tokenId,\n            from: msg.sender,\n            accepted: false\n        });\n        bids[nextBidId] = newBid;\n        emit BidCreated(\n            _tokenAddress,\n            _amount,\n            _nftContract,\n            _tokenId,\n            msg.sender\n        );\n        nextBidId++;\n    }\n\n    function acceptBid(uint32 bidId, uint256 duration) public onlyAcceptedTokens(bids[bidId].tokenContract) {\n        Bid storage bid = bids[bidId];\n        require(!bid.accepted, \"Bid already accepted\");\n\n        IERC20 token = IERC20(bid.tokenContract);\n        require(token.transferFrom(msg.sender, bid.from, bid.askAmount), \"Token transfer failed\");\n\n        bid.accepted = true;\n        // bid.dueDate = block.timestamp + duration;\n\n        IERC721 nft = IERC721(bid.nftContract);\n        require(nft.ownerOf(bid.tokenId) == address(this), \"NFT is not staked in the contract\");\n\n        // emit BidAccepted(bidId, msg.sender, bid.dueDate);\n    }\n\n}\n",
  "sourcePath": "/home/el_clandestin0_/Desktop/solidity-projects/consensys_interview_poc/contracts/NFTLendingPlatform.sol",
  "compiler": {
    "name": "solc",
    "version": "0.8.21+commit.d9974bed.Emscripten.clang"
  },
  "schemaVersion": "3.4.16",
  "updatedAt": "2024-06-26T01:15:36.553Z",
  "devdoc": {
    "kind": "dev",
    "methods": {},
    "version": 1
  },
  "userdoc": {
    "kind": "user",
    "methods": {},
    "version": 1
  }
}