{
  "contractName": "NFTPlatform",
  "abi": [
    {
      "anonymous": false,
      "inputs": [
        {
          "indexed": false,
          "internalType": "uint32",
          "name": "bidId",
          "type": "uint32"
        },
        {
          "indexed": false,
          "internalType": "address",
          "name": "from",
          "type": "address"
        },
        {
          "indexed": false,
          "internalType": "uint256",
          "name": "initialPremiumFee",
          "type": "uint256"
        },
        {
          "indexed": false,
          "internalType": "uint32",
          "name": "duration",
          "type": "uint32"
        }
      ],
      "name": "AcceptBid",
      "type": "event"
    },
    {
      "anonymous": false,
      "inputs": [
        {
          "indexed": false,
          "internalType": "address",
          "name": "tokenContract",
          "type": "address"
        },
        {
          "indexed": false,
          "internalType": "uint256",
          "name": "askAmount",
          "type": "uint256"
        },
        {
          "indexed": false,
          "internalType": "address",
          "name": "nftContract",
          "type": "address"
        },
        {
          "indexed": false,
          "internalType": "uint256",
          "name": "tokenId",
          "type": "uint256"
        },
        {
          "indexed": false,
          "internalType": "address",
          "name": "from",
          "type": "address"
        }
      ],
      "name": "CreateBid",
      "type": "event"
    },
    {
      "anonymous": false,
      "inputs": [
        {
          "indexed": true,
          "internalType": "uint32",
          "name": "policyId",
          "type": "uint32"
        },
        {
          "indexed": true,
          "internalType": "address",
          "name": "claimant",
          "type": "address"
        },
        {
          "indexed": false,
          "internalType": "uint256",
          "name": "amount",
          "type": "uint256"
        },
        {
          "indexed": false,
          "internalType": "bool",
          "name": "isPremium",
          "type": "bool"
        }
      ],
      "name": "DefaultLoan",
      "type": "event"
    },
    {
      "anonymous": false,
      "inputs": [
        {
          "indexed": false,
          "internalType": "uint32",
          "name": "policyId",
          "type": "uint32"
        }
      ],
      "name": "PayPrincipal",
      "type": "event"
    },
    {
      "inputs": [
        {
          "internalType": "uint32",
          "name": "",
          "type": "uint32"
        }
      ],
      "name": "bids",
      "outputs": [
        {
          "internalType": "address",
          "name": "tokenContract",
          "type": "address"
        },
        {
          "internalType": "uint256",
          "name": "askAmount",
          "type": "uint256"
        },
        {
          "internalType": "address",
          "name": "from",
          "type": "address"
        },
        {
          "internalType": "address",
          "name": "nftContract",
          "type": "address"
        },
        {
          "internalType": "uint256",
          "name": "tokenId",
          "type": "uint256"
        }
      ],
      "stateMutability": "view",
      "type": "function"
    }
  ],
  "bytecode": "0x608060405234801561000f575f80fd5b506102358061001d5f395ff3fe608060405234801561000f575f80fd5b5060043610610029575f3560e01c806350892fbe1461002d575b5f80fd5b6100476004803603810190610042919061012c565b610061565b6040516100589594939291906101ae565b60405180910390f35b5f602052805f5260405f205f91509050805f015f9054906101000a900473ffffffffffffffffffffffffffffffffffffffff1690806001015490806002015f9054906101000a900473ffffffffffffffffffffffffffffffffffffffff1690806003015f9054906101000a900473ffffffffffffffffffffffffffffffffffffffff16908060040154905085565b5f80fd5b5f63ffffffff82169050919050565b61010b816100f3565b8114610115575f80fd5b50565b5f8135905061012681610102565b92915050565b5f60208284031215610141576101406100ef565b5b5f61014e84828501610118565b91505092915050565b5f73ffffffffffffffffffffffffffffffffffffffff82169050919050565b5f61018082610157565b9050919050565b61019081610176565b82525050565b5f819050919050565b6101a881610196565b82525050565b5f60a0820190506101c15f830188610187565b6101ce602083018761019f565b6101db6040830186610187565b6101e86060830185610187565b6101f5608083018461019f565b969550505050505056fea2646970667358221220ae152db20ab3f5a99b9ae92c9029d28445395454dc286b09291196427d4f04ae64736f6c63430008150033",
  "immutableReferences": {},
  "source": "//SPDX-Identifier: MIT\npragma solidity ^0.8.2;\n\nimport \"@openzeppelin/contracts/utils/math/Math.sol\";\n\ncontract NFTPlatform {\n\n    // structs\n    struct Bid {\n        address tokenContract;\n        uint256 askAmount;\n        address from;\n        address nftContract;\n        uint256 tokenId;\n    }\n\n    // storage\n    mapping (uint32 => Bid) public bids;\n\n    // events\n    event CreateBid(\n        address tokenContract,\n        uint256 askAmount,\n        address nftContract,\n        uint256 tokenId,\n        address from\n    );\n\n    \n    event AcceptBid(\n        uint32 bidId,\n        address from,\n        uint256 initialPremiumFee,\n        uint32 duration\n    );\n\n    event PayPrincipal(uint32 policyId);\n    \n    event DefaultLoan(\n        uint32 indexed policyId,\n        address indexed claimant,\n        uint256 amount,\n        bool isPremium\n    );\n}",
  "sourcePath": "/home/el_clandestin0_/Desktop/solidity-projects/consensys_interview_poc/contracts/NFTLendingPlatform.sol",
  "compiler": {
    "name": "solc",
    "version": "0.8.21+commit.d9974bed.Emscripten.clang"
  },
  "schemaVersion": "3.4.16",
  "updatedAt": "2024-06-25T15:14:13.340Z",
  "devdoc": {
    "kind": "dev",
    "methods": {},
    "version": 1
  },
  "userdoc": {
    "kind": "user",
    "methods": {},
    "version": 1
  }
}