{
  "contractName": "NFTPlatform",
  "abi": [
    {
      "inputs": [
        {
          "internalType": "address",
          "name": "acceptedToken",
          "type": "address"
        }
      ],
      "stateMutability": "nonpayable",
      "type": "constructor"
    },
    {
      "anonymous": false,
      "inputs": [
        {
          "indexed": false,
          "internalType": "uint32",
          "name": "bidId",
          "type": "uint32"
        },
        {
          "indexed": false,
          "internalType": "address",
          "name": "from",
          "type": "address"
        },
        {
          "indexed": false,
          "internalType": "uint256",
          "name": "initialPremiumFee",
          "type": "uint256"
        },
        {
          "indexed": false,
          "internalType": "uint32",
          "name": "duration",
          "type": "uint32"
        }
      ],
      "name": "AcceptBid",
      "type": "event"
    },
    {
      "anonymous": false,
      "inputs": [
        {
          "indexed": false,
          "internalType": "address",
          "name": "tokenContract",
          "type": "address"
        },
        {
          "indexed": false,
          "internalType": "uint256",
          "name": "askAmount",
          "type": "uint256"
        },
        {
          "indexed": false,
          "internalType": "address",
          "name": "nftContract",
          "type": "address"
        },
        {
          "indexed": false,
          "internalType": "uint256",
          "name": "tokenId",
          "type": "uint256"
        },
        {
          "indexed": false,
          "internalType": "address",
          "name": "from",
          "type": "address"
        }
      ],
      "name": "CreateBid",
      "type": "event"
    },
    {
      "anonymous": false,
      "inputs": [
        {
          "indexed": false,
          "internalType": "uint32",
          "name": "bidId",
          "type": "uint32"
        },
        {
          "indexed": false,
          "internalType": "address",
          "name": "nftContract",
          "type": "address"
        },
        {
          "indexed": false,
          "internalType": "uint256",
          "name": "tokenId",
          "type": "uint256"
        }
      ],
      "name": "DefaultLoan",
      "type": "event"
    },
    {
      "anonymous": false,
      "inputs": [
        {
          "indexed": false,
          "internalType": "uint32",
          "name": "bidId",
          "type": "uint32"
        },
        {
          "indexed": false,
          "internalType": "address",
          "name": "tokenPaidIn",
          "type": "address"
        },
        {
          "indexed": false,
          "internalType": "uint256",
          "name": "amountPaid",
          "type": "uint256"
        }
      ],
      "name": "PayPrincipal",
      "type": "event"
    },
    {
      "inputs": [
        {
          "internalType": "address",
          "name": "",
          "type": "address"
        },
        {
          "internalType": "uint256",
          "name": "",
          "type": "uint256"
        }
      ],
      "name": "acceptedBids",
      "outputs": [
        {
          "internalType": "address",
          "name": "tokenContract",
          "type": "address"
        },
        {
          "internalType": "uint256",
          "name": "askAmount",
          "type": "uint256"
        },
        {
          "internalType": "address",
          "name": "from",
          "type": "address"
        },
        {
          "internalType": "address",
          "name": "nftContract",
          "type": "address"
        },
        {
          "internalType": "uint256",
          "name": "tokenId",
          "type": "uint256"
        }
      ],
      "stateMutability": "view",
      "type": "function"
    },
    {
      "inputs": [
        {
          "internalType": "address",
          "name": "",
          "type": "address"
        }
      ],
      "name": "acceptedTokens",
      "outputs": [
        {
          "internalType": "bool",
          "name": "",
          "type": "bool"
        }
      ],
      "stateMutability": "view",
      "type": "function"
    },
    {
      "inputs": [
        {
          "internalType": "uint32",
          "name": "",
          "type": "uint32"
        }
      ],
      "name": "bids",
      "outputs": [
        {
          "internalType": "address",
          "name": "tokenContract",
          "type": "address"
        },
        {
          "internalType": "uint256",
          "name": "askAmount",
          "type": "uint256"
        },
        {
          "internalType": "address",
          "name": "from",
          "type": "address"
        },
        {
          "internalType": "address",
          "name": "nftContract",
          "type": "address"
        },
        {
          "internalType": "uint256",
          "name": "tokenId",
          "type": "uint256"
        }
      ],
      "stateMutability": "view",
      "type": "function"
    },
    {
      "inputs": [],
      "name": "nextBidId",
      "outputs": [
        {
          "internalType": "uint32",
          "name": "",
          "type": "uint32"
        }
      ],
      "stateMutability": "view",
      "type": "function"
    },
    {
      "inputs": [
        {
          "internalType": "address",
          "name": "_tokenAddress",
          "type": "address"
        },
        {
          "internalType": "uint256",
          "name": "_amount",
          "type": "uint256"
        },
        {
          "internalType": "address",
          "name": "_nftContract",
          "type": "address"
        },
        {
          "internalType": "uint256",
          "name": "_tokenId",
          "type": "uint256"
        }
      ],
      "name": "createBid",
      "outputs": [],
      "stateMutability": "nonpayable",
      "type": "function"
    }
  ],
  "bytecode": "0x60806040526003805463ffffffff1916600117905534801561002057600080fd5b5060405161053b38038061053b83398101604081905261003f91610066565b6001600160a01b03166000908152600260205260409020805460ff19166001179055610096565b60006020828403121561007857600080fd5b81516001600160a01b038116811461008f57600080fd5b9392505050565b610496806100a56000396000f3fe608060405234801561001057600080fd5b50600436106100575760003560e01c806350892fbe1461005c57806382dc4a05146100e8578063bd3a27b01461011b578063dc26904914610130578063fbc69c6714610155575b600080fd5b6100a861006a36600461035d565b600060208190529081526040902080546001820154600283015460038401546004909401546001600160a01b03938416949293918216929091169085565b604080516001600160a01b0396871681526020810195909552928516928401929092529092166060820152608081019190915260a0015b60405180910390f35b61010b6100f63660046103a6565b60026020526000908152604090205460ff1681565b60405190151581526020016100df565b61012e6101293660046103c1565b610168565b005b6003546101409063ffffffff1681565b60405163ffffffff90911681526020016100df565b6100a8610163366004610405565b610300565b6001600160a01b038416600090815260026020526040902054849060ff166101d65760405162461bcd60e51b815260206004820152601e60248201527f4e6f7420616e20616363657074656420746f6b656e2061646472657373210000604482015260640160405180910390fd5b6040805160a080820183526001600160a01b0388811680845260208085018a8152338688018181528b86166060808a018281526080808c018f81526003805463ffffffff166000908152808b528f90208e518154908e166001600160a01b0319918216178255995160018201559651600288018054918e16918b169190911790559251928601805493909b169290971691909117909855935160049092019190915588519485529284018c90529683019190915281018790529081019390935290917f4460d9013e5d8952f701ed6df6f9e1fc75101219861fe7496b8495d9d6ce3a78910160405180910390a16003805463ffffffff169060006102d98361042f565b91906101000a81548163ffffffff021916908363ffffffff16021790555050505050505050565b6001602052816000526040600020818154811061031c57600080fd5b6000918252602090912060059091020180546001820154600283015460038401546004909401546001600160a01b0393841696509194508216929091169085565b60006020828403121561036f57600080fd5b813563ffffffff8116811461038357600080fd5b9392505050565b80356001600160a01b03811681146103a157600080fd5b919050565b6000602082840312156103b857600080fd5b6103838261038a565b600080600080608085870312156103d757600080fd5b6103e08561038a565b9350602085013592506103f56040860161038a565b9396929550929360600135925050565b6000806040838503121561041857600080fd5b6104218361038a565b946020939093013593505050565b600063ffffffff80831681810361045657634e487b7160e01b600052601160045260246000fd5b600101939250505056fea2646970667358221220e03bc04744ffda83d25c17738adc6c9e29b924b1068154719b1796216b5a778764736f6c63430008150033",
  "immutableReferences": {},
  "source": "//SPDX-Identifier: MIT\npragma solidity ^0.8.2;\n\nimport \"@openzeppelin/contracts/utils/math/Math.sol\";\n\ncontract NFTPlatform {\n    // Structs\n    struct Bid {\n        address tokenContract;\n        uint256 askAmount;\n        address from;\n        address nftContract;\n        uint256 tokenId;\n    }\n\n    // Storage\n    mapping (uint32 => Bid) public bids;\n    mapping (address => Bid[]) public acceptedBids;\n    mapping (address => bool) public acceptedTokens;\n\n    // Policy ID\n    uint32 public nextBidId = 1;\n\n    // Events\n    event CreateBid(\n        address tokenContract,\n        uint256 askAmount,\n        address nftContract,\n        uint256 tokenId,\n        address from\n    );\n\n    event AcceptBid(\n        uint32 bidId,\n        address from,\n        uint256 initialPremiumFee,\n        uint32 duration\n    );\n\n    event PayPrincipal(uint32 bidId, address tokenPaidIn, uint256 amountPaid);\n    \n    event DefaultLoan(\n        uint32 bidId,\n        address nftContract,\n        uint256 tokenId\n    );\n\n    constructor(address acceptedToken) {\n        acceptedTokens[acceptedToken] = true;\n    }\n\n    // Modifiers \n    modifier onlyAcceptedTokens(address tokenAddress) {\n        require(acceptedTokens[tokenAddress], \"Not an accepted token address!\");\n        _;\n    }\n\n    // Functions\n    function createBid(address _tokenAddress, uint256 _amount, address _nftContract, uint256 _tokenId) public onlyAcceptedTokens(_tokenAddress) {\n        Bid memory newBid = Bid({\n            tokenContract: _tokenAddress,\n            askAmount: _amount,\n            nftContract: _nftContract,\n            tokenId: _tokenId,\n            from: msg.sender\n        });\n        bids[nextBidId] = newBid;\n         emit CreateBid(\n            _tokenAddress,\n            _amount,\n            _nftContract,\n            _tokenId,\n            msg.sender\n         );\n         nextBidId++;\n    }\n}",
  "sourcePath": "/home/el_clandestin0_/Desktop/solidity-projects/consensys_interview_poc/contracts/NFTLendingPlatform.sol",
  "compiler": {
    "name": "solc",
    "version": "0.8.21+commit.d9974bed.Emscripten.clang"
  },
  "schemaVersion": "3.4.16",
  "updatedAt": "2024-06-25T23:46:19.201Z",
  "devdoc": {
    "kind": "dev",
    "methods": {},
    "version": 1
  },
  "userdoc": {
    "kind": "user",
    "methods": {},
    "version": 1
  }
}