{
  "contractName": "NFTPlatform",
  "abi": [
    {
      "inputs": [
        {
          "internalType": "address",
          "name": "acceptedToken",
          "type": "address"
        }
      ],
      "stateMutability": "nonpayable",
      "type": "constructor"
    },
    {
      "anonymous": false,
      "inputs": [
        {
          "indexed": false,
          "internalType": "uint32",
          "name": "bidId",
          "type": "uint32"
        },
        {
          "indexed": false,
          "internalType": "address",
          "name": "from",
          "type": "address"
        }
      ],
      "name": "BidAccepted",
      "type": "event"
    },
    {
      "anonymous": false,
      "inputs": [
        {
          "indexed": false,
          "internalType": "address",
          "name": "tokenContract",
          "type": "address"
        },
        {
          "indexed": false,
          "internalType": "uint256",
          "name": "askAmount",
          "type": "uint256"
        },
        {
          "indexed": false,
          "internalType": "address",
          "name": "nftContract",
          "type": "address"
        },
        {
          "indexed": false,
          "internalType": "uint256",
          "name": "tokenId",
          "type": "uint256"
        },
        {
          "indexed": false,
          "internalType": "address",
          "name": "from",
          "type": "address"
        }
      ],
      "name": "BidCreated",
      "type": "event"
    },
    {
      "anonymous": false,
      "inputs": [
        {
          "indexed": false,
          "internalType": "uint32",
          "name": "bidId",
          "type": "uint32"
        }
      ],
      "name": "LoanDefaulted",
      "type": "event"
    },
    {
      "anonymous": false,
      "inputs": [
        {
          "indexed": false,
          "internalType": "uint32",
          "name": "bidId",
          "type": "uint32"
        },
        {
          "indexed": false,
          "internalType": "address",
          "name": "tokenPaidIn",
          "type": "address"
        },
        {
          "indexed": false,
          "internalType": "uint256",
          "name": "amountPaid",
          "type": "uint256"
        }
      ],
      "name": "LoanRepaid",
      "type": "event"
    },
    {
      "inputs": [
        {
          "internalType": "address",
          "name": "",
          "type": "address"
        },
        {
          "internalType": "uint256",
          "name": "",
          "type": "uint256"
        }
      ],
      "name": "acceptedLoans",
      "outputs": [
        {
          "internalType": "uint32",
          "name": "bidId",
          "type": "uint32"
        },
        {
          "internalType": "address",
          "name": "tokenContract",
          "type": "address"
        },
        {
          "internalType": "uint256",
          "name": "askAmount",
          "type": "uint256"
        },
        {
          "internalType": "address",
          "name": "from",
          "type": "address"
        },
        {
          "internalType": "address",
          "name": "nftContract",
          "type": "address"
        },
        {
          "internalType": "uint256",
          "name": "tokenId",
          "type": "uint256"
        },
        {
          "internalType": "bool",
          "name": "accepted",
          "type": "bool"
        }
      ],
      "stateMutability": "view",
      "type": "function"
    },
    {
      "inputs": [
        {
          "internalType": "address",
          "name": "",
          "type": "address"
        }
      ],
      "name": "acceptedNFTs",
      "outputs": [
        {
          "internalType": "bool",
          "name": "",
          "type": "bool"
        }
      ],
      "stateMutability": "view",
      "type": "function"
    },
    {
      "inputs": [
        {
          "internalType": "address",
          "name": "",
          "type": "address"
        }
      ],
      "name": "acceptedTokens",
      "outputs": [
        {
          "internalType": "bool",
          "name": "",
          "type": "bool"
        }
      ],
      "stateMutability": "view",
      "type": "function"
    },
    {
      "inputs": [
        {
          "internalType": "uint32",
          "name": "",
          "type": "uint32"
        }
      ],
      "name": "bids",
      "outputs": [
        {
          "internalType": "uint32",
          "name": "bidId",
          "type": "uint32"
        },
        {
          "internalType": "address",
          "name": "tokenContract",
          "type": "address"
        },
        {
          "internalType": "uint256",
          "name": "askAmount",
          "type": "uint256"
        },
        {
          "internalType": "address",
          "name": "from",
          "type": "address"
        },
        {
          "internalType": "address",
          "name": "nftContract",
          "type": "address"
        },
        {
          "internalType": "uint256",
          "name": "tokenId",
          "type": "uint256"
        },
        {
          "internalType": "bool",
          "name": "accepted",
          "type": "bool"
        }
      ],
      "stateMutability": "view",
      "type": "function"
    },
    {
      "inputs": [
        {
          "internalType": "uint32",
          "name": "",
          "type": "uint32"
        }
      ],
      "name": "loans",
      "outputs": [
        {
          "internalType": "uint32",
          "name": "bidId",
          "type": "uint32"
        },
        {
          "internalType": "address",
          "name": "tokenContract",
          "type": "address"
        },
        {
          "internalType": "uint256",
          "name": "askAmount",
          "type": "uint256"
        },
        {
          "internalType": "address",
          "name": "from",
          "type": "address"
        },
        {
          "internalType": "address",
          "name": "nftContract",
          "type": "address"
        },
        {
          "internalType": "uint256",
          "name": "tokenId",
          "type": "uint256"
        },
        {
          "internalType": "bool",
          "name": "defaulted",
          "type": "bool"
        },
        {
          "internalType": "address",
          "name": "lender",
          "type": "address"
        }
      ],
      "stateMutability": "view",
      "type": "function"
    },
    {
      "inputs": [],
      "name": "nextBidId",
      "outputs": [
        {
          "internalType": "uint32",
          "name": "",
          "type": "uint32"
        }
      ],
      "stateMutability": "view",
      "type": "function"
    },
    {
      "inputs": [
        {
          "internalType": "address",
          "name": "_tokenAddress",
          "type": "address"
        },
        {
          "internalType": "uint256",
          "name": "_amount",
          "type": "uint256"
        },
        {
          "internalType": "address",
          "name": "_nftContract",
          "type": "address"
        },
        {
          "internalType": "uint256",
          "name": "_tokenId",
          "type": "uint256"
        }
      ],
      "name": "createBid",
      "outputs": [],
      "stateMutability": "nonpayable",
      "type": "function"
    },
    {
      "inputs": [
        {
          "internalType": "uint32",
          "name": "bidId",
          "type": "uint32"
        }
      ],
      "name": "acceptBid",
      "outputs": [],
      "stateMutability": "nonpayable",
      "type": "function"
    },
    {
      "inputs": [
        {
          "internalType": "uint32",
          "name": "bidId",
          "type": "uint32"
        }
      ],
      "name": "repayLoan",
      "outputs": [],
      "stateMutability": "nonpayable",
      "type": "function"
    },
    {
      "inputs": [
        {
          "internalType": "uint32",
          "name": "bidId",
          "type": "uint32"
        }
      ],
      "name": "defaultLoan",
      "outputs": [],
      "stateMutability": "nonpayable",
      "type": "function"
    }
  ],
  "bytecode": "0x60806040526005805463ffffffff1916600117905534801561002057600080fd5b506040516112b53803806112b583398101604081905261003f91610066565b6001600160a01b03166000908152600260205260409020805460ff19166001179055610096565b60006020828403121561007857600080fd5b81516001600160a01b038116811461008f57600080fd5b9392505050565b611210806100a56000396000f3fe608060405234801561001057600080fd5b506004361061009e5760003560e01c8063948355a711610066578063948355a714610280578063bd3a27b014610293578063dc269049146102a6578063e8f4343c146102cb578063ed153d67146102de57600080fd5b806308c40531146100a357806350892fbe146100db57806369401b541461018957806382dc4a051461019e5780638c36c6e4146101c1575b600080fd5b6100c66100b136600461104e565b60036020526000908152604090205460ff1681565b60405190151581526020015b60405180910390f35b61013d6100e9366004611072565b60006020819052908152604090208054600182015460028301546003840154600485015460059095015463ffffffff851695600160201b9095046001600160a01b0390811695938116939216919060ff1687565b6040805163ffffffff90981688526001600160a01b039687166020890152870194909452918416606086015292909216608084015260a0830191909152151560c082015260e0016100d2565b61019c610197366004611072565b6102f1565b005b6100c66101ac36600461104e565b60026020526000908152604090205460ff1681565b6102316101cf366004611072565b600460208190526000918252604090912080546001820154600283015460038401549484015460059094015463ffffffff8416956001600160a01b03600160201b90950485169593949283169390831692909160ff8116916101009091041688565b6040805163ffffffff90991689526001600160a01b0397881660208a01528801959095529285166060870152908416608086015260a0850152151560c08401521660e0820152610100016100d2565b61019c61028e366004611072565b6105c2565b61019c6102a1366004611098565b610aaf565b6005546102b69063ffffffff1681565b60405163ffffffff90911681526020016100d2565b61019c6102d9366004611072565b610dfe565b61013d6102ec3660046110e0565b610fc3565b63ffffffff81166000908152602081905260409020600581015460ff1661035f5760405162461bcd60e51b815260206004820152601f60248201527f43616e277420726570617920626964206966206e6f742061636365707465640060448201526064015b60405180910390fd5b60028101546001600160a01b031633146103d35760405162461bcd60e51b815260206004820152602f60248201527f4f6e6c79207468652063726561746f72206f6620746865206269642063616e2060448201526e726570617920746865206c6f616e2160881b6064820152608401610356565b80546001820154600160201b9091046001600160a01b031690612710906000906103fe908390611122565b6040516370a0823160e01b815233600482015290915081906001600160a01b038516906370a0823190602401602060405180830381865afa158015610447573d6000803e3d6000fd5b505050506040513d601f19601f8201168201806040525081019061046b919061113b565b101561047657600080fd5b6040516323b872dd60e01b81526001600160a01b038416906323b872dd906104a690339030908690600401611154565b6020604051808303816000875af11580156104c5573d6000803e3d6000fd5b505050506040513d601f19601f820116820180604052508101906104e99190611178565b6104f257600080fd5b60038401546004808601546040516323b872dd60e01b81526001600160a01b039093169283926323b872dd9261052d92309233929101611154565b600060405180830381600087803b15801561054757600080fd5b505af115801561055b573d6000803e3d6000fd5b5050865460018801546040805163ffffffff8c168152600160201b9093046001600160a01b031660208401528201527fb5634f4b927cc9d347aadb5b7b887e9a5a093db24700551eecdce431d1b8846c9250606001905060405180910390a1505050505050565b63ffffffff811660009081526020818152604080832054600160201b90046001600160a01b031680845260029092529091205460ff1661063d5760405162461bcd60e51b81526020600482015260166024820152754e6f7420616e20616363657074656420746f6b656e2160501b6044820152606401610356565b63ffffffff82166000908152602081905260409020600581015460ff161561069e5760405162461bcd60e51b8152602060048201526014602482015273109a5908185b1c9958591e481858d8d95c1d195960621b6044820152606401610356565b8054600282015460018301546040516323b872dd60e01b8152600160201b9093046001600160a01b039081169384936323b872dd936106e4933393921691600401611154565b6020604051808303816000875af1158015610703573d6000803e3d6000fd5b505050506040513d601f19601f820116820180604052508101906107279190611178565b61076b5760405162461bcd60e51b8152602060048201526015602482015274151bdad95b881d1c985b9cd9995c8819985a5b1959605a1b6044820152606401610356565b60058201805460ff1916600117905560038201546004808401546040516331a9108f60e11b81526001600160a01b039093169230928492636352211e926107b6920190815260200190565b602060405180830381865afa1580156107d3573d6000803e3d6000fd5b505050506040513d601f19601f820116820180604052508101906107f7919061119a565b6001600160a01b0316146108575760405162461bcd60e51b815260206004820152602160248201527f4e4654206973206e6f74207374616b656420696e2074686520636f6e747261636044820152601d60fa1b6064820152608401610356565b6040805163ffffffff871681523360208201527f415c1ba2aff0efbb6d1459b5049e0b8690cfd31dcd446592102ecc1eae5d94f0910160405180910390a160006040518061010001604052808560000160009054906101000a900463ffffffff1663ffffffff1681526020018560000160049054906101000a90046001600160a01b03166001600160a01b03168152602001856001015481526020018560020160009054906101000a90046001600160a01b03166001600160a01b031681526020018560030160009054906101000a90046001600160a01b03166001600160a01b0316815260200185600401548152602001600015158152602001336001600160a01b0316815250905080600460008660000160009054906101000a900463ffffffff1663ffffffff1663ffffffff16815260200190815260200160002060008201518160000160006101000a81548163ffffffff021916908363ffffffff16021790555060208201518160000160046101000a8154816001600160a01b0302191690836001600160a01b031602179055506040820151816001015560608201518160020160006101000a8154816001600160a01b0302191690836001600160a01b0316021790555060808201518160030160006101000a8154816001600160a01b0302191690836001600160a01b0316021790555060a0820151816004015560c08201518160050160006101000a81548160ff02191690831515021790555060e08201518160050160016101000a8154816001600160a01b0302191690836001600160a01b03160217905550905050505050505050565b6040516331a9108f60e11b815260048101829052829033906001600160a01b03831690636352211e90602401602060405180830381865afa158015610af8573d6000803e3d6000fd5b505050506040513d601f19601f82011682018060405250810190610b1c919061119a565b6001600160a01b031614610b725760405162461bcd60e51b815260206004820152601b60248201527f4d757374206f776e2074686520746f6b656e20746f2073656e642100000000006044820152606401610356565b604051632142170760e11b81526001600160a01b038216906342842e0e90610ba290339030908790600401611154565b600060405180830381600087803b158015610bbc57600080fd5b505af1158015610bd0573d6000803e3d6000fd5b5050505060006040518060e00160405280600560009054906101000a900463ffffffff1663ffffffff168152602001876001600160a01b03168152602001868152602001336001600160a01b03168152602001856001600160a01b0316815260200184815260200160001515815250905080600080600560009054906101000a900463ffffffff1663ffffffff1663ffffffff16815260200190815260200160002060008201518160000160006101000a81548163ffffffff021916908363ffffffff16021790555060208201518160000160046101000a8154816001600160a01b0302191690836001600160a01b031602179055506040820151816001015560608201518160020160006101000a8154816001600160a01b0302191690836001600160a01b0316021790555060808201518160030160006101000a8154816001600160a01b0302191690836001600160a01b0316021790555060a0820151816004015560c08201518160050160006101000a81548160ff0219169083151502179055509050507f5d0b1cbe752aae8ade43db77b284bc0fb2d3a115b0412ccd4ce7ce3eab55bfdf8686868633604051610db99594939291906001600160a01b039586168152602081019490945291841660408401526060830152909116608082015260a00190565b60405180910390a16005805463ffffffff16906000610dd7836111b7565b91906101000a81548163ffffffff021916908363ffffffff16021790555050505050505050565b63ffffffff81166000908152602081905260409020600581015460ff16610e5e5760405162461bcd60e51b8152602060048201526014602482015273109a59081b5d5cdd081899481858d8d95c1d195960621b6044820152606401610356565b60038101546004808301546040516331a9108f60e11b8152918201526001600160a01b039091169030908290636352211e90602401602060405180830381865afa158015610eb0573d6000803e3d6000fd5b505050506040513d601f19601f82011682018060405250810190610ed4919061119a565b6001600160a01b031614610f1c5760405162461bcd60e51b815260206004820152600f60248201526e4e4654206e6f74207374616b65642160881b6044820152606401610356565b600480830154604051632142170760e11b81526001600160a01b038416926342842e0e92610f4f92309233929101611154565b600060405180830381600087803b158015610f6957600080fd5b505af1158015610f7d573d6000803e3d6000fd5b5050835460405163ffffffff90911681527f7405f2886b5eb0578773a70ad4f3bcfbd604d4ad145cedbe563aecd40c88ef529250602001905060405180910390a1505050565b60016020528160005260406000208181548110610fdf57600080fd5b600091825260209091206006909102018054600182015460028301546003840154600485015460059095015463ffffffff851697506001600160a01b03600160201b90950485169650929491841693169160ff1687565b6001600160a01b038116811461104b57600080fd5b50565b60006020828403121561106057600080fd5b813561106b81611036565b9392505050565b60006020828403121561108457600080fd5b813563ffffffff8116811461106b57600080fd5b600080600080608085870312156110ae57600080fd5b84356110b981611036565b93506020850135925060408501356110d081611036565b9396929550929360600135925050565b600080604083850312156110f357600080fd5b82356110fe81611036565b946020939093013593505050565b634e487b7160e01b600052601160045260246000fd5b808201808211156111355761113561110c565b92915050565b60006020828403121561114d57600080fd5b5051919050565b6001600160a01b039384168152919092166020820152604081019190915260600190565b60006020828403121561118a57600080fd5b8151801515811461106b57600080fd5b6000602082840312156111ac57600080fd5b815161106b81611036565b600063ffffffff8083168181036111d0576111d061110c565b600101939250505056fea26469706673582212202c241cb8088c6c16f2872ed8abe05c9610de48c0b1e4da1ebcfa45c530625ea964736f6c63430008150033",
  "immutableReferences": {},
  "source": "//SPDX-License-Identifier: MIT\npragma solidity ^0.8.2;\n\nimport \"@openzeppelin/contracts/utils/math/Math.sol\";\nimport \"@openzeppelin/contracts/token/ERC721/IERC721.sol\";\nimport \"@openzeppelin/contracts/token/ERC20/IERC20.sol\";\n\ncontract NFTPlatform {\n    // Structs\n    struct Bid {\n        uint32 bidId;\n        address tokenContract;\n        uint256 askAmount;\n        address from;\n        address nftContract;\n        uint256 tokenId;\n        bool accepted;\n    }\n\n    struct Loan {\n        uint32 bidId;\n        address tokenContract;\n        uint256 askAmount;\n        address from;\n        address nftContract;\n        uint256 tokenId;\n        bool defaulted;\n        address lender;\n    }\n\n    // Storage\n    mapping(uint32 => Bid) public bids;\n    mapping(address => Bid[]) public acceptedLoans;\n    mapping(address => bool) public acceptedTokens;\n    mapping(address => bool) public acceptedNFTs;\n    mapping(uint32 => Loan) public loans;\n\n    // Bid id\n    uint32 public nextBidId = 1;\n\n    // Events\n    event BidCreated(\n        address tokenContract,\n        uint256 askAmount,\n        address nftContract,\n        uint256 tokenId,\n        address from\n    );\n\n    event BidAccepted(uint32 bidId, address from);\n\n    event LoanRepaid(uint32 bidId, address tokenPaidIn, uint256 amountPaid);\n\n    event LoanDefaulted(uint32 bidId);\n\n    constructor(address acceptedToken) {\n        acceptedTokens[acceptedToken] = true;\n    }\n\n    // Modifiers\n    modifier onlyAcceptedTokens(address tokenAddress) {\n        require(acceptedTokens[tokenAddress], \"Not an accepted token!\");\n        _;\n    }\n\n    // Modifiers\n    modifier onlyAcceptedNFTs(address nftAddress) {\n        require(acceptedNFTs[nftAddress], \"Not an accepted NFT collection!\");\n        _;\n    }\n\n    // Functions\n    function createBid(\n        address _tokenAddress,\n        uint256 _amount,\n        address _nftContract,\n        uint256 _tokenId\n    ) public {\n        IERC721 nft = IERC721(_nftContract);\n        require(\n            nft.ownerOf(_tokenId) == msg.sender,\n            \"Must own the token to send!\"\n        );\n        nft.safeTransferFrom(msg.sender, address(this), _tokenId);\n\n        Bid memory newBid = Bid({\n            bidId: nextBidId,\n            tokenContract: _tokenAddress,\n            askAmount: _amount,\n            nftContract: _nftContract,\n            tokenId: _tokenId,\n            from: msg.sender,\n            accepted: false\n        });\n        bids[nextBidId] = newBid;\n        emit BidCreated(\n            _tokenAddress,\n            _amount,\n            _nftContract,\n            _tokenId,\n            msg.sender\n        );\n        nextBidId++;\n    }\n\n    function acceptBid(\n        uint32 bidId\n    ) public onlyAcceptedTokens(bids[bidId].tokenContract) {\n        Bid storage bid = bids[bidId];\n        require(!bid.accepted, \"Bid already accepted\");\n\n        IERC20 token = IERC20(bid.tokenContract);\n        require(\n            token.transferFrom(msg.sender, bid.from, bid.askAmount),\n            \"Token transfer failed\"\n        );\n\n        bid.accepted = true;\n        // bid.dueDate = block.timestamp + duration;\n\n        IERC721 nft = IERC721(bid.nftContract);\n        require(\n            nft.ownerOf(bid.tokenId) == address(this),\n            \"NFT is not staked in the contract\"\n        );\n\n        emit BidAccepted(bidId, msg.sender);\n\n        Loan memory loan = Loan({\n            bidId: bid.bidId,\n            tokenContract: bid.tokenContract,\n            askAmount: bid.askAmount,\n            from: bid.from,\n            nftContract: bid.nftContract,\n            tokenId: bid.tokenId,\n            defaulted: false,\n            lender: msg.sender\n        });\n\n        loans[bid.bidId] = loan;\n    }\n\n    function repayLoan(uint32 bidId) public {\n        Bid storage bid = bids[bidId];\n        require(bid.accepted, \"Can't repay bid if not accepted\");\n        \n        // can remove below require if you want to incentivize users to pay for other people's loans\n        require(\n            bid.from == msg.sender,\n            \"Only the creator of the bid can repay the loan!\"\n        );\n        IERC20 token = IERC20(bid.tokenContract);\n\n        // can remove comment below and comment out `interest` variable for a more robust interest calc.\n        // uint256 customInterest = calculateInterest(bid.askAmount, bid.dueDate - block.timestamp)\n        uint256 interest = 10000;\n        uint256 totalPaymentRequired = bid.askAmount + interest;\n\n        require(token.balanceOf(msg.sender) >= totalPaymentRequired);\n        require(\n            token.transferFrom(msg.sender, address(this), totalPaymentRequired)\n        );\n\n        IERC721 nft = IERC721(bid.nftContract);\n        nft.transferFrom(address(this), msg.sender, bid.tokenId);\n\n        emit LoanRepaid(bidId, bid.tokenContract, bid.askAmount);\n        (bidId, bid.tokenContract, totalPaymentRequired);\n    }\n\n    function defaultLoan(uint32 bidId) public {\n        // optional: add a require so it can only be executable by the lender when duration has passed\n        Bid storage bid = bids[bidId];\n        require(bid.accepted, \"Bid must be accepted\");\n        // add more requires depending on how deep you want your protocol tog o\n\n        IERC721 nft = IERC721(bid.nftContract);\n        require(nft.ownerOf(bid.tokenId) == address(this), \"NFT not staked!\");\n        nft.safeTransferFrom(address(this), msg.sender, bid.tokenId);\n\n        emit LoanDefaulted(bid.bidId);\n    }\n}\n",
  "sourcePath": "/home/el_clandestin0_/Desktop/solidity-projects/consensys_interview_poc/contracts/NFTLendingPlatform.sol",
  "compiler": {
    "name": "solc",
    "version": "0.8.21+commit.d9974bed.Emscripten.clang"
  },
  "schemaVersion": "3.4.16",
  "updatedAt": "2024-06-26T15:54:30.063Z",
  "devdoc": {
    "kind": "dev",
    "methods": {},
    "version": 1
  },
  "userdoc": {
    "kind": "user",
    "methods": {},
    "version": 1
  }
}