{
  "contractName": "USDCToken",
  "abi": [
    {
      "inputs": [
        {
          "internalType": "address",
          "name": "initialOwner",
          "type": "address"
        }
      ],
      "stateMutability": "nonpayable",
      "type": "constructor"
    },
    {
      "inputs": [
        {
          "internalType": "address",
          "name": "spender",
          "type": "address"
        },
        {
          "internalType": "uint256",
          "name": "allowance",
          "type": "uint256"
        },
        {
          "internalType": "uint256",
          "name": "needed",
          "type": "uint256"
        }
      ],
      "name": "ERC20InsufficientAllowance",
      "type": "error"
    },
    {
      "inputs": [
        {
          "internalType": "address",
          "name": "sender",
          "type": "address"
        },
        {
          "internalType": "uint256",
          "name": "balance",
          "type": "uint256"
        },
        {
          "internalType": "uint256",
          "name": "needed",
          "type": "uint256"
        }
      ],
      "name": "ERC20InsufficientBalance",
      "type": "error"
    },
    {
      "inputs": [
        {
          "internalType": "address",
          "name": "approver",
          "type": "address"
        }
      ],
      "name": "ERC20InvalidApprover",
      "type": "error"
    },
    {
      "inputs": [
        {
          "internalType": "address",
          "name": "receiver",
          "type": "address"
        }
      ],
      "name": "ERC20InvalidReceiver",
      "type": "error"
    },
    {
      "inputs": [
        {
          "internalType": "address",
          "name": "sender",
          "type": "address"
        }
      ],
      "name": "ERC20InvalidSender",
      "type": "error"
    },
    {
      "inputs": [
        {
          "internalType": "address",
          "name": "spender",
          "type": "address"
        }
      ],
      "name": "ERC20InvalidSpender",
      "type": "error"
    },
    {
      "inputs": [
        {
          "internalType": "address",
          "name": "owner",
          "type": "address"
        }
      ],
      "name": "OwnableInvalidOwner",
      "type": "error"
    },
    {
      "inputs": [
        {
          "internalType": "address",
          "name": "account",
          "type": "address"
        }
      ],
      "name": "OwnableUnauthorizedAccount",
      "type": "error"
    },
    {
      "anonymous": false,
      "inputs": [
        {
          "indexed": true,
          "internalType": "address",
          "name": "owner",
          "type": "address"
        },
        {
          "indexed": true,
          "internalType": "address",
          "name": "spender",
          "type": "address"
        },
        {
          "indexed": false,
          "internalType": "uint256",
          "name": "value",
          "type": "uint256"
        }
      ],
      "name": "Approval",
      "type": "event"
    },
    {
      "anonymous": false,
      "inputs": [
        {
          "indexed": true,
          "internalType": "address",
          "name": "previousOwner",
          "type": "address"
        },
        {
          "indexed": true,
          "internalType": "address",
          "name": "newOwner",
          "type": "address"
        }
      ],
      "name": "OwnershipTransferred",
      "type": "event"
    },
    {
      "anonymous": false,
      "inputs": [
        {
          "indexed": true,
          "internalType": "address",
          "name": "from",
          "type": "address"
        },
        {
          "indexed": true,
          "internalType": "address",
          "name": "to",
          "type": "address"
        },
        {
          "indexed": false,
          "internalType": "uint256",
          "name": "value",
          "type": "uint256"
        }
      ],
      "name": "Transfer",
      "type": "event"
    },
    {
      "inputs": [
        {
          "internalType": "address",
          "name": "owner",
          "type": "address"
        },
        {
          "internalType": "address",
          "name": "spender",
          "type": "address"
        }
      ],
      "name": "allowance",
      "outputs": [
        {
          "internalType": "uint256",
          "name": "",
          "type": "uint256"
        }
      ],
      "stateMutability": "view",
      "type": "function"
    },
    {
      "inputs": [
        {
          "internalType": "address",
          "name": "spender",
          "type": "address"
        },
        {
          "internalType": "uint256",
          "name": "value",
          "type": "uint256"
        }
      ],
      "name": "approve",
      "outputs": [
        {
          "internalType": "bool",
          "name": "",
          "type": "bool"
        }
      ],
      "stateMutability": "nonpayable",
      "type": "function"
    },
    {
      "inputs": [
        {
          "internalType": "address",
          "name": "account",
          "type": "address"
        }
      ],
      "name": "balanceOf",
      "outputs": [
        {
          "internalType": "uint256",
          "name": "",
          "type": "uint256"
        }
      ],
      "stateMutability": "view",
      "type": "function"
    },
    {
      "inputs": [],
      "name": "decimals",
      "outputs": [
        {
          "internalType": "uint8",
          "name": "",
          "type": "uint8"
        }
      ],
      "stateMutability": "view",
      "type": "function"
    },
    {
      "inputs": [],
      "name": "name",
      "outputs": [
        {
          "internalType": "string",
          "name": "",
          "type": "string"
        }
      ],
      "stateMutability": "view",
      "type": "function"
    },
    {
      "inputs": [],
      "name": "owner",
      "outputs": [
        {
          "internalType": "address",
          "name": "",
          "type": "address"
        }
      ],
      "stateMutability": "view",
      "type": "function"
    },
    {
      "inputs": [],
      "name": "renounceOwnership",
      "outputs": [],
      "stateMutability": "nonpayable",
      "type": "function"
    },
    {
      "inputs": [],
      "name": "symbol",
      "outputs": [
        {
          "internalType": "string",
          "name": "",
          "type": "string"
        }
      ],
      "stateMutability": "view",
      "type": "function"
    },
    {
      "inputs": [],
      "name": "totalSupply",
      "outputs": [
        {
          "internalType": "uint256",
          "name": "",
          "type": "uint256"
        }
      ],
      "stateMutability": "view",
      "type": "function"
    },
    {
      "inputs": [
        {
          "internalType": "address",
          "name": "to",
          "type": "address"
        },
        {
          "internalType": "uint256",
          "name": "value",
          "type": "uint256"
        }
      ],
      "name": "transfer",
      "outputs": [
        {
          "internalType": "bool",
          "name": "",
          "type": "bool"
        }
      ],
      "stateMutability": "nonpayable",
      "type": "function"
    },
    {
      "inputs": [
        {
          "internalType": "address",
          "name": "from",
          "type": "address"
        },
        {
          "internalType": "address",
          "name": "to",
          "type": "address"
        },
        {
          "internalType": "uint256",
          "name": "value",
          "type": "uint256"
        }
      ],
      "name": "transferFrom",
      "outputs": [
        {
          "internalType": "bool",
          "name": "",
          "type": "bool"
        }
      ],
      "stateMutability": "nonpayable",
      "type": "function"
    },
    {
      "inputs": [
        {
          "internalType": "address",
          "name": "newOwner",
          "type": "address"
        }
      ],
      "name": "transferOwnership",
      "outputs": [],
      "stateMutability": "nonpayable",
      "type": "function"
    },
    {
      "inputs": [
        {
          "internalType": "address",
          "name": "to",
          "type": "address"
        }
      ],
      "name": "mint",
      "outputs": [],
      "stateMutability": "nonpayable",
      "type": "function"
    }
  ],
  "bytecode": "0x60806040523480156200001157600080fd5b5060405162000bbb38038062000bbb83398101604081905262000034916200013f565b806040518060400160405280601881526020017f436f6e73656e737973436f6c6c61746572616c546f6b656e0000000000000000815250604051806040016040528060048152602001634353595360e01b815250816003908162000099919062000216565b506004620000a8828262000216565b5050506001600160a01b038116620000da57604051631e4fbdf760e01b81526000600482015260240160405180910390fd5b620000e581620000ed565b5050620002e2565b600580546001600160a01b038381166001600160a01b0319831681179093556040519116919082907f8be0079c531659141344cd1fd0a4f28419497f9722a3daafe3b4186f6b6457e090600090a35050565b6000602082840312156200015257600080fd5b81516001600160a01b03811681146200016a57600080fd5b9392505050565b634e487b7160e01b600052604160045260246000fd5b600181811c908216806200019c57607f821691505b602082108103620001bd57634e487b7160e01b600052602260045260246000fd5b50919050565b601f8211156200021157600081815260208120601f850160051c81016020861015620001ec5750805b601f850160051c820191505b818110156200020d57828155600101620001f8565b5050505b505050565b81516001600160401b0381111562000232576200023262000171565b6200024a8162000243845462000187565b84620001c3565b602080601f831160018114620002825760008415620002695750858301515b600019600386901b1c1916600185901b1785556200020d565b600085815260208120601f198616915b82811015620002b35788860151825594840194600190910190840162000292565b5085821015620002d25787850151600019600388901b60f8161c191681555b5050505050600190811b01905550565b6108c980620002f26000396000f3fe608060405234801561001057600080fd5b50600436106100cf5760003560e01c806370a082311161008c57806395d89b411161006657806395d89b41146101aa578063a9059cbb146101b2578063dd62ed3e146101c5578063f2fde38b146101fe57600080fd5b806370a082311461015e578063715018a6146101875780638da5cb5b1461018f57600080fd5b806306fdde03146100d4578063095ea7b3146100f257806318160ddd1461011557806323b872dd14610127578063313ce5671461013a5780636a62784214610149575b600080fd5b6100dc610211565b6040516100e99190610713565b60405180910390f35b61010561010036600461077d565b6102a3565b60405190151581526020016100e9565b6002545b6040519081526020016100e9565b6101056101353660046107a7565b6102bd565b604051601281526020016100e9565b61015c6101573660046107e3565b6102e1565b005b61011961016c3660046107e3565b6001600160a01b031660009081526020819052604090205490565b61015c6102fb565b6005546040516001600160a01b0390911681526020016100e9565b6100dc61030f565b6101056101c036600461077d565b61031e565b6101196101d3366004610805565b6001600160a01b03918216600090815260016020908152604080832093909416825291909152205490565b61015c61020c3660046107e3565b61032c565b60606003805461022090610838565b80601f016020809104026020016040519081016040528092919081815260200182805461024c90610838565b80156102995780601f1061026e57610100808354040283529160200191610299565b820191906000526020600020905b81548152906001019060200180831161027c57829003601f168201915b5050505050905090565b6000336102b181858561036c565b60019150505b92915050565b6000336102cb85828561037e565b6102d68585856103fc565b506001949350505050565b6102e961045b565b6102f8816402540be400610488565b50565b61030361045b565b61030d60006104c2565b565b60606004805461022090610838565b6000336102b18185856103fc565b61033461045b565b6001600160a01b03811661036357604051631e4fbdf760e01b8152600060048201526024015b60405180910390fd5b6102f8816104c2565b6103798383836001610514565b505050565b6001600160a01b0383811660009081526001602090815260408083209386168352929052205460001981146103f657818110156103e757604051637dc7a0d960e11b81526001600160a01b0384166004820152602481018290526044810183905260640161035a565b6103f684848484036000610514565b50505050565b6001600160a01b03831661042657604051634b637e8f60e11b81526000600482015260240161035a565b6001600160a01b0382166104505760405163ec442f0560e01b81526000600482015260240161035a565b6103798383836105e9565b6005546001600160a01b0316331461030d5760405163118cdaa760e01b815233600482015260240161035a565b6001600160a01b0382166104b25760405163ec442f0560e01b81526000600482015260240161035a565b6104be600083836105e9565b5050565b600580546001600160a01b038381166001600160a01b0319831681179093556040519116919082907f8be0079c531659141344cd1fd0a4f28419497f9722a3daafe3b4186f6b6457e090600090a35050565b6001600160a01b03841661053e5760405163e602df0560e01b81526000600482015260240161035a565b6001600160a01b03831661056857604051634a1406b160e11b81526000600482015260240161035a565b6001600160a01b03808516600090815260016020908152604080832093871683529290522082905580156103f657826001600160a01b0316846001600160a01b03167f8c5be1e5ebec7d5bd14f71427d1e84f3dd0314c0f7b2291e5b200ac8c7c3b925846040516105db91815260200190565b60405180910390a350505050565b6001600160a01b0383166106145780600260008282546106099190610872565b909155506106869050565b6001600160a01b038316600090815260208190526040902054818110156106675760405163391434e360e21b81526001600160a01b0385166004820152602481018290526044810183905260640161035a565b6001600160a01b03841660009081526020819052604090209082900390555b6001600160a01b0382166106a2576002805482900390556106c1565b6001600160a01b03821660009081526020819052604090208054820190555b816001600160a01b0316836001600160a01b03167fddf252ad1be2c89b69c2b068fc378daa952ba7f163c4a11628f55a4df523b3ef8360405161070691815260200190565b60405180910390a3505050565b600060208083528351808285015260005b8181101561074057858101830151858201604001528201610724565b506000604082860101526040601f19601f8301168501019250505092915050565b80356001600160a01b038116811461077857600080fd5b919050565b6000806040838503121561079057600080fd5b61079983610761565b946020939093013593505050565b6000806000606084860312156107bc57600080fd5b6107c584610761565b92506107d360208501610761565b9150604084013590509250925092565b6000602082840312156107f557600080fd5b6107fe82610761565b9392505050565b6000806040838503121561081857600080fd5b61082183610761565b915061082f60208401610761565b90509250929050565b600181811c9082168061084c57607f821691505b60208210810361086c57634e487b7160e01b600052602260045260246000fd5b50919050565b808201808211156102b757634e487b7160e01b600052601160045260246000fdfea26469706673582212208e311900c28210c5f600f61943c295828dba2b1b24bc75f06a8fd46e7233fa7364736f6c63430008150033",
  "immutableReferences": {},
  "source": "//SPDX-License-Identifier: MIT\npragma solidity ^0.8.2;\n\nimport \"@openzeppelin/contracts/token/ERC20/ERC20.sol\";\nimport \"@openzeppelin/contracts/access/Ownable.sol\";\n\ncontract USDCToken is ERC20, Ownable {\n\n    constructor(\n        address initialOwner\n    ) ERC20(\"ConsensysCollateralToken\", \"CSYS\") Ownable(initialOwner) {}\n\n    function mint(address to) public onlyOwner {\n        _mint(to, 10000000000);\n    }\n}\n",
  "sourcePath": "/home/el_clandestin0_/Desktop/solidity-projects/consensys_interview_poc/contracts/USDCToken.sol",
  "compiler": {
    "name": "solc",
    "version": "0.8.21+commit.d9974bed.Emscripten.clang"
  },
  "schemaVersion": "3.4.16",
  "updatedAt": "2024-06-26T15:54:48.441Z",
  "devdoc": {
    "errors": {
      "ERC20InsufficientAllowance(address,uint256,uint256)": [
        {
          "details": "Indicates a failure with the `spender`s `allowance`. Used in transfers.",
          "params": {
            "allowance": "Amount of tokens a `spender` is allowed to operate with.",
            "needed": "Minimum amount required to perform a transfer.",
            "spender": "Address that may be allowed to operate on tokens without being their owner."
          }
        }
      ],
      "ERC20InsufficientBalance(address,uint256,uint256)": [
        {
          "details": "Indicates an error related to the current `balance` of a `sender`. Used in transfers.",
          "params": {
            "balance": "Current balance for the interacting account.",
            "needed": "Minimum amount required to perform a transfer.",
            "sender": "Address whose tokens are being transferred."
          }
        }
      ],
      "ERC20InvalidApprover(address)": [
        {
          "details": "Indicates a failure with the `approver` of a token to be approved. Used in approvals.",
          "params": {
            "approver": "Address initiating an approval operation."
          }
        }
      ],
      "ERC20InvalidReceiver(address)": [
        {
          "details": "Indicates a failure with the token `receiver`. Used in transfers.",
          "params": {
            "receiver": "Address to which tokens are being transferred."
          }
        }
      ],
      "ERC20InvalidSender(address)": [
        {
          "details": "Indicates a failure with the token `sender`. Used in transfers.",
          "params": {
            "sender": "Address whose tokens are being transferred."
          }
        }
      ],
      "ERC20InvalidSpender(address)": [
        {
          "details": "Indicates a failure with the `spender` to be approved. Used in approvals.",
          "params": {
            "spender": "Address that may be allowed to operate on tokens without being their owner."
          }
        }
      ],
      "OwnableInvalidOwner(address)": [
        {
          "details": "The owner is not a valid owner account. (eg. `address(0)`)"
        }
      ],
      "OwnableUnauthorizedAccount(address)": [
        {
          "details": "The caller account is not authorized to perform an operation."
        }
      ]
    },
    "events": {
      "Approval(address,address,uint256)": {
        "details": "Emitted when the allowance of a `spender` for an `owner` is set by a call to {approve}. `value` is the new allowance."
      },
      "Transfer(address,address,uint256)": {
        "details": "Emitted when `value` tokens are moved from one account (`from`) to another (`to`). Note that `value` may be zero."
      }
    },
    "kind": "dev",
    "methods": {
      "allowance(address,address)": {
        "details": "See {IERC20-allowance}."
      },
      "approve(address,uint256)": {
        "details": "See {IERC20-approve}. NOTE: If `value` is the maximum `uint256`, the allowance is not updated on `transferFrom`. This is semantically equivalent to an infinite approval. Requirements: - `spender` cannot be the zero address."
      },
      "balanceOf(address)": {
        "details": "See {IERC20-balanceOf}."
      },
      "decimals()": {
        "details": "Returns the number of decimals used to get its user representation. For example, if `decimals` equals `2`, a balance of `505` tokens should be displayed to a user as `5.05` (`505 / 10 ** 2`). Tokens usually opt for a value of 18, imitating the relationship between Ether and Wei. This is the default value returned by this function, unless it's overridden. NOTE: This information is only used for _display_ purposes: it in no way affects any of the arithmetic of the contract, including {IERC20-balanceOf} and {IERC20-transfer}."
      },
      "name()": {
        "details": "Returns the name of the token."
      },
      "owner()": {
        "details": "Returns the address of the current owner."
      },
      "renounceOwnership()": {
        "details": "Leaves the contract without owner. It will not be possible to call `onlyOwner` functions. Can only be called by the current owner. NOTE: Renouncing ownership will leave the contract without an owner, thereby disabling any functionality that is only available to the owner."
      },
      "symbol()": {
        "details": "Returns the symbol of the token, usually a shorter version of the name."
      },
      "totalSupply()": {
        "details": "See {IERC20-totalSupply}."
      },
      "transfer(address,uint256)": {
        "details": "See {IERC20-transfer}. Requirements: - `to` cannot be the zero address. - the caller must have a balance of at least `value`."
      },
      "transferFrom(address,address,uint256)": {
        "details": "See {IERC20-transferFrom}. Emits an {Approval} event indicating the updated allowance. This is not required by the EIP. See the note at the beginning of {ERC20}. NOTE: Does not update the allowance if the current allowance is the maximum `uint256`. Requirements: - `from` and `to` cannot be the zero address. - `from` must have a balance of at least `value`. - the caller must have allowance for ``from``'s tokens of at least `value`."
      },
      "transferOwnership(address)": {
        "details": "Transfers ownership of the contract to a new account (`newOwner`). Can only be called by the current owner."
      }
    },
    "version": 1
  },
  "userdoc": {
    "kind": "user",
    "methods": {},
    "version": 1
  }
}